S00B00004943552E7372656338
S11300000C942A000C9447000C9447000C9447006D
S11300100C9447000C9447000C9447000C94470040
S11300200C9447000C94B8030C9463030C940E03D3
S11300300C9447000C9447000C9447000C94470020
S11300400C9447000C9447000C9447000C94470010
S11300500C94470011241FBECFE5D8E0DEBFCDBF0E
S113006010E0A0E6B0E0ECE3F8E002C005900D92E9
S1130070A837B107D9F720E0A8E7B0E001C01D9286
S1130080A539B207E1F70E94A5020C941C040C9454
S113009000004423B9F1413009F06BC0813089F08C
S11300A028F08230C9F0833011F108952AB381E039
S11300B090E002C0880F991F6A95E2F7822B8ABBF1
S11300C0089527B381E090E002C0880F991F6A95D4
S11300D0E2F7822B87BB089524B381E090E002C04D
S11300E0880F991F6A95E2F7822B84BB089521B388
S11300F081E090E002C0880F991F6A95E2F7822B95
S113010081BB0895813091F028F08230D9F083309A
S113011029F108952AB381E090E002C0880F991F65
S11301206A95E2F7809582238ABB089527B381E01C
S113013090E002C0880F991F6A95E2F780958223A8
S113014087BB089524B381E090E002C0880F991F13
S11301506A95E2F78095822384BB089521B381E0F8
S113016090E002C0880F991F6A95E2F78095822378
S113017081BB08954423B9F1413009F06BC081304B
S113018089F028F08230C9F0833011F108952BB33F
S113019081E090E002C0880F991F6A95E2F7822BF4
S11301A08BBB089528B381E090E002C0880F991FAB
S11301B06A95E2F7822B88BB089525B381E090E02D
S11301C002C0880F991F6A95E2F7822B85BB0895B8
S11301D022B381E090E002C0880F991F6A95E2F78C
S11301E0822B82BB0895813091F028F08230D9F0BF
S11301F0833029F108952BB381E090E002C0880F89
S1130200991F6A95E2F7809582238BBB089528B3E2
S113021081E090E002C0880F991F6A95E2F780950B
S1130220822388BB089525B381E090E002C0880F43
S1130230991F6A95E2F78095822385BB089522B3BE
S113024081E090E002C0880F991F6A95E2F78095DB
S1130250822382BB0895CF93C82F40E061E081E000
S11302600E94BA0040E062E081E00E94BA0040E0EF
S113027063E081E00E94BA008BB39C2F907F8F7063
S1130280892B8BBB41E063E081E00E94BA008FE9D7
S11302909FE00197F1F700C0000040E063E081E0D7
S11302A00E94BA002BB330E1C39FC0011124922FE6
S11302B09F70892B8BBB41E063E081E00E94BA0010
S11302C08FE99FE00197F1F700C0000040E063E090
S11302D081E00E94BA008FE19EE40197F1F700C02B
S11302E00000CF91089541E061E081E00E9449005F
S11302F041E062E081E00E94490041E063E081E086
S11303000E94490041E064E080E00E94490041E02D
S113031065E080E00E94490041E066E080E00E94E0
S1130320490041E067E080E00E9449002FEF81EE40
S113033094E0215080409040E1F700C0000083E346
S11303400E942B0182E30E942B0188E20E942B0170
S11303508CE00E942B0181E00E942B0186E00E9428
S11303602B0182E00E942B010895CF93C82F41E016
S113037061E081E00E94BA0040E062E081E00E9416
S1130380BA0040E063E081E00E94BA008C2F807FD5
S11303908BBB41E063E081E00E94BA008FE99FE0FB
S11303A00197F1F700C0000040E063E081E00E94A3
S11303B0BA00C295C07FCBBB41E063E081E00E94FC
S11303C0BA008FE99FE00197F1F700C0000040E018
S11303D063E081E00E94BA008FE19EE40197F1F7A7
S11303E000C00000CF9108950F931F93CF93FC0199
S11303F08081882359F08F01C0E00E94B501CF5F4E
S1130400F801EC0FF11D80818111F7CFCF911F917D
S11304100F910895CF93DF9300D0CDB7DEB790E866
S1130420998390EC9A83FE01E80FF11D8181860F78
S11304300E942B010F900F90DF91CF91089581E0DE
S11304400E942B0108958F929F92AF92BF92CF92F8
S1130450DF92EF92FF920F931F938B019C01672B06
S1130460682B692B09F453C061E070E080E090E0F0
S11304700F2EFAE08F2E912CA12CB12CF02DDC0143
S1130480CB01880F991FAA1FBB1F6C017D01CC0CE7
S1130490DD1CEE1CFF1CCC0CDD1CEE1CFF1CC80E6E
S11304A0D91EEA1EFB1EC901B801A50194010E94D0
S11304B0E0036C0D7D1D8E1D9F1D022F132F242F15
S11304C0352F0115110521053105C9F66230710575
S11304D081059105E0F00F2EFAE08F2E912CA12CCE
S11304E0B12CF02DA50194010E94E003E22EF32E1D
S11304F0042F152F80E3860F0E94B5016E2D7F2DEA
S1130500802F912F623071058105910558F71F9155
S11305100F91FF90EF90DF90CF90BF90AF909F909E
S11305208F9008958F9A85B58A6685BD0895BF9A80
S11305308E9817BC16BC8EB581648EBD89B7846253
S113054089BF8FB780688FBF08950E94920289E99E
S113055083BD0E9497020E9473010F2E812CF4E246
S11305609F2EF4EFAF2EB12CF02D809184008330B8
S1130570F1F78091800090918100A0918200B09168
S11305808300C0907800D0907900E0907A00F090D9
S11305907B00C81AD90AEA0AFB0A40917C005091F0
S11305A07D0060917E0070917F009A01AB01281B51
S11305B0390B4A0B5B0BA4E6B0E00E941104A701BF
S11305C096010E94E00329013A0180E690E00E942E
S11305D0F401C301B2010E94230260E081E00E94A1
S11305E00A028CE690E00E94F401C501B401A7015F
S11305F096010E94E003CA01B9010E9423022FEF71
S113060084E39CE0215080409040E1F700C000006A
S11306100E941F0289B7806289BFA7CF1F920F92E1
S11306200FB60F9211242F933F934F935F936F93C1
S11306307F938F939F93AF93BF93EF93FF93809197
S11306408B008F5F80938B0080918B0090E0A0E003
S1130650B0E04091910050919200609193007091AC
S1130660940084179507A607B707E1F4E091890081
S1130670F0918A0009958091900082BF10928B00BE
S113068080918B0090E0A0E0B0E040919100509107
S11306909200609193007091940084179507A607C7
S11306A0B70721F3FF91EF91BF91AF919F918F9184
S11306B07F916F915F914F913F912F910F900FBE5A
S11306C00F901F9018951F920F920FB60F9211243E
S11306D02F933F934F935F936F937F938F939F9346
S11306E0AF93BF93EF93FF9380918B008F5F8093C1
S11306F08B0080918B0090E0A0E0B0E040918C00F2
S113070050918D0060918E0070918F008417950731
S1130710A607B707E1F4E0918900F0918A000995F2
S1130720809190008CBF10928B0080918B0090E0A0
S1130730A0E0B0E040918C0050918D0060918E005B
S113074070918F0084179507A607B70721F3FF91CF
S1130750EF91BF91AF919F918F917F916F915F9135
S11307604F913F912F910F900FBE0F901F901895AE
S11307701F920F920FB60F9211248F939F93AF93F2
S1130780BF9381E087BB88BB8091850090918600F0
S1130790A0918700B09188000196A11DB11D80939E
S11307A0850090938600A0938700B0938800BF9142
S11307B0AF919F918F910F900FBE0F901F9018953E
S11307C0A1E21A2EAA1BBB1BFD010DC0AA1FBB1F51
S11307D0EE1FFF1FA217B307E407F50720F0A21BC3
S11307E0B30BE40BF50B661F771F881F991F1A9430
S11307F069F760957095809590959B01AC01BD015A
S1130800CF010895A29FB001B39FC001A39F700DB3
S1130810811D1124911DB29F700D811D1124911D04
S113082008950E940204A59F900DB49F900DA49F6B
S10F0830800D911D11240895F894FFCF51
S113083C44555459204359434C453A00467265710A
S10B084C75656E63793A000042
S9030000FC
